{
  "contractName": "TodoList",
  "abi": [
    {
      "constant": true,
      "inputs": [],
      "name": "taskCount",
      "outputs": [
        {
          "name": "",
          "type": "uint256"
        }
      ],
      "payable": false,
      "stateMutability": "view",
      "type": "function",
      "signature": "0xb6cb58a5"
    }
  ],
  "bytecode": "0x608060405260008055348015601357600080fd5b506099806100226000396000f3fe608060405260043610603e5763ffffffff7c0100000000000000000000000000000000000000000000000000000000600035041663b6cb58a581146043575b600080fd5b348015604e57600080fd5b5060556067565b60408051918252519081900360200190f35b6000548156fea165627a7a72305820008218776bddaefa08ddb1d82295a0aa1d569b0d46d38ba48a7a6f234177347e0029",
  "source": "//smart contrac that will manage the todolist for the application\r\n\r\npragma solidity ^0.5.0;     //version for solidity\r\n\r\n//declaring the smart contract\r\ncontract TodoList {\r\n    uint public taskCount = 0; //state variable(represent the state of the smart contract on the blockchain)\r\n}",
  "sourcePath": "C:/projects/blockchain/3/project/contracts/TodoList.sol",
  "compiler": {
    "name": "solc",
    "version": "0.5.0+commit.1d4f565a.Emscripten.clang"
  },
  "schemaVersion": "3.0.1",
  "updatedAt": "2019-12-12T10:34:41.316Z",
  "devdoc": {
    "methods": {}
  },
  "userdoc": {
    "methods": {}
  }
}